{
  "contractName": "POAToken",
  "abi": [
    {
      "constant": true,
      "inputs": [],
      "name": "name",
      "outputs": [
        {
          "name": "",
          "type": "string"
        }
      ],
      "payable": false,
      "stateMutability": "view",
      "type": "function"
    },
    {
      "constant": false,
      "inputs": [
        {
          "name": "_spender",
          "type": "address"
        },
        {
          "name": "_value",
          "type": "uint256"
        }
      ],
      "name": "approve",
      "outputs": [
        {
          "name": "",
          "type": "bool"
        }
      ],
      "payable": false,
      "stateMutability": "nonpayable",
      "type": "function"
    },
    {
      "constant": true,
      "inputs": [],
      "name": "totalSupply",
      "outputs": [
        {
          "name": "",
          "type": "uint256"
        }
      ],
      "payable": false,
      "stateMutability": "view",
      "type": "function"
    },
    {
      "constant": false,
      "inputs": [
        {
          "name": "_from",
          "type": "address"
        },
        {
          "name": "_to",
          "type": "address"
        },
        {
          "name": "_value",
          "type": "uint256"
        }
      ],
      "name": "transferFrom",
      "outputs": [
        {
          "name": "",
          "type": "bool"
        }
      ],
      "payable": false,
      "stateMutability": "nonpayable",
      "type": "function"
    },
    {
      "constant": true,
      "inputs": [],
      "name": "decimals",
      "outputs": [
        {
          "name": "",
          "type": "uint8"
        }
      ],
      "payable": false,
      "stateMutability": "view",
      "type": "function"
    },
    {
      "constant": true,
      "inputs": [],
      "name": "custodian",
      "outputs": [
        {
          "name": "",
          "type": "address"
        }
      ],
      "payable": false,
      "stateMutability": "view",
      "type": "function"
    },
    {
      "constant": false,
      "inputs": [
        {
          "name": "_v",
          "type": "uint8"
        },
        {
          "name": "_r",
          "type": "bytes32"
        },
        {
          "name": "_s",
          "type": "bytes32"
        }
      ],
      "name": "activate",
      "outputs": [],
      "payable": false,
      "stateMutability": "nonpayable",
      "type": "function"
    },
    {
      "constant": false,
      "inputs": [],
      "name": "claim",
      "outputs": [],
      "payable": false,
      "stateMutability": "nonpayable",
      "type": "function"
    },
    {
      "constant": false,
      "inputs": [],
      "name": "payout",
      "outputs": [],
      "payable": true,
      "stateMutability": "payable",
      "type": "function"
    },
    {
      "constant": false,
      "inputs": [
        {
          "name": "_spender",
          "type": "address"
        },
        {
          "name": "_subtractedValue",
          "type": "uint256"
        }
      ],
      "name": "decreaseApproval",
      "outputs": [
        {
          "name": "success",
          "type": "bool"
        }
      ],
      "payable": false,
      "stateMutability": "nonpayable",
      "type": "function"
    },
    {
      "constant": true,
      "inputs": [
        {
          "name": "_account",
          "type": "address"
        }
      ],
      "name": "balanceOf",
      "outputs": [
        {
          "name": "balance",
          "type": "uint256"
        }
      ],
      "payable": false,
      "stateMutability": "view",
      "type": "function"
    },
    {
      "constant": true,
      "inputs": [],
      "name": "timeout",
      "outputs": [
        {
          "name": "",
          "type": "uint256"
        }
      ],
      "payable": false,
      "stateMutability": "view",
      "type": "function"
    },
    {
      "constant": false,
      "inputs": [],
      "name": "reclaim",
      "outputs": [],
      "payable": false,
      "stateMutability": "nonpayable",
      "type": "function"
    },
    {
      "constant": false,
      "inputs": [
        {
          "name": "_account",
          "type": "address"
        }
      ],
      "name": "liquidated",
      "outputs": [],
      "payable": true,
      "stateMutability": "payable",
      "type": "function"
    },
    {
      "constant": true,
      "inputs": [],
      "name": "owner",
      "outputs": [
        {
          "name": "",
          "type": "address"
        }
      ],
      "payable": false,
      "stateMutability": "view",
      "type": "function"
    },
    {
      "constant": true,
      "inputs": [],
      "name": "symbol",
      "outputs": [
        {
          "name": "",
          "type": "string"
        }
      ],
      "payable": false,
      "stateMutability": "view",
      "type": "function"
    },
    {
      "constant": false,
      "inputs": [],
      "name": "buy",
      "outputs": [],
      "payable": true,
      "stateMutability": "payable",
      "type": "function"
    },
    {
      "constant": false,
      "inputs": [
        {
          "name": "_to",
          "type": "address"
        },
        {
          "name": "_value",
          "type": "uint256"
        }
      ],
      "name": "transfer",
      "outputs": [
        {
          "name": "",
          "type": "bool"
        }
      ],
      "payable": false,
      "stateMutability": "nonpayable",
      "type": "function"
    },
    {
      "constant": true,
      "inputs": [],
      "name": "broker",
      "outputs": [
        {
          "name": "",
          "type": "address"
        }
      ],
      "payable": false,
      "stateMutability": "view",
      "type": "function"
    },
    {
      "constant": false,
      "inputs": [
        {
          "name": "_supply",
          "type": "uint256"
        }
      ],
      "name": "debugSetSupply",
      "outputs": [],
      "payable": false,
      "stateMutability": "nonpayable",
      "type": "function"
    },
    {
      "constant": true,
      "inputs": [],
      "name": "stage",
      "outputs": [
        {
          "name": "",
          "type": "uint8"
        }
      ],
      "payable": false,
      "stateMutability": "view",
      "type": "function"
    },
    {
      "constant": false,
      "inputs": [
        {
          "name": "_spender",
          "type": "address"
        },
        {
          "name": "_addedValue",
          "type": "uint256"
        }
      ],
      "name": "increaseApproval",
      "outputs": [
        {
          "name": "success",
          "type": "bool"
        }
      ],
      "payable": false,
      "stateMutability": "nonpayable",
      "type": "function"
    },
    {
      "constant": true,
      "inputs": [],
      "name": "creationTime",
      "outputs": [
        {
          "name": "",
          "type": "uint256"
        }
      ],
      "payable": false,
      "stateMutability": "view",
      "type": "function"
    },
    {
      "constant": true,
      "inputs": [
        {
          "name": "_owner",
          "type": "address"
        },
        {
          "name": "_spender",
          "type": "address"
        }
      ],
      "name": "allowance",
      "outputs": [
        {
          "name": "remaining",
          "type": "uint256"
        }
      ],
      "payable": false,
      "stateMutability": "view",
      "type": "function"
    },
    {
      "constant": false,
      "inputs": [
        {
          "name": "_amount",
          "type": "uint256"
        }
      ],
      "name": "sell",
      "outputs": [],
      "payable": false,
      "stateMutability": "nonpayable",
      "type": "function"
    },
    {
      "constant": false,
      "inputs": [
        {
          "name": "_stage",
          "type": "uint8"
        }
      ],
      "name": "enterStage",
      "outputs": [],
      "payable": false,
      "stateMutability": "nonpayable",
      "type": "function"
    },
    {
      "inputs": [
        {
          "name": "_name",
          "type": "string"
        },
        {
          "name": "_symbol",
          "type": "string"
        },
        {
          "name": "_broker",
          "type": "address"
        },
        {
          "name": "_custodian",
          "type": "address"
        },
        {
          "name": "_timeout",
          "type": "uint256"
        },
        {
          "name": "_supply",
          "type": "uint256"
        }
      ],
      "payable": false,
      "stateMutability": "nonpayable",
      "type": "constructor"
    },
    {
      "anonymous": false,
      "inputs": [
        {
          "indexed": false,
          "name": "stage",
          "type": "uint8"
        }
      ],
      "name": "Stage",
      "type": "event"
    },
    {
      "anonymous": false,
      "inputs": [
        {
          "indexed": false,
          "name": "buyer",
          "type": "address"
        },
        {
          "indexed": false,
          "name": "amount",
          "type": "uint256"
        }
      ],
      "name": "Buy",
      "type": "event"
    },
    {
      "anonymous": false,
      "inputs": [
        {
          "indexed": false,
          "name": "seller",
          "type": "address"
        },
        {
          "indexed": false,
          "name": "amount",
          "type": "uint256"
        }
      ],
      "name": "Sell",
      "type": "event"
    },
    {
      "anonymous": false,
      "inputs": [
        {
          "indexed": false,
          "name": "amount",
          "type": "uint256"
        }
      ],
      "name": "Payout",
      "type": "event"
    },
    {
      "anonymous": false,
      "inputs": [
        {
          "indexed": true,
          "name": "owner",
          "type": "address"
        },
        {
          "indexed": true,
          "name": "spender",
          "type": "address"
        },
        {
          "indexed": false,
          "name": "value",
          "type": "uint256"
        }
      ],
      "name": "Approval",
      "type": "event"
    },
    {
      "anonymous": false,
      "inputs": [
        {
          "indexed": true,
          "name": "from",
          "type": "address"
        },
        {
          "indexed": true,
          "name": "to",
          "type": "address"
        },
        {
          "indexed": false,
          "name": "value",
          "type": "uint256"
        }
      ],
      "name": "Transfer",
      "type": "event"
    }
  ],
  "bytecode": "0x60606040526012600660006101000a81548160ff021916908360ff1602179055506000600c556000600d60006101000a81548160ff021916908360038111156200004557fe5b021790555034156200005657600080fd5b604051620027cc380380620027cc8339810160405280805182019190602001805182019190602001805190602001909190805190602001909190805190602001909190805190602001909190505033600360006101000a81548173ffffffffffffffffffffffffffffffffffffffff021916908373ffffffffffffffffffffffffffffffffffffffff1602179055508560049080519060200190620000fd92919062000223565b5084600590805190602001906200011692919062000223565b5083600660016101000a81548173ffffffffffffffffffffffffffffffffffffffff021916908373ffffffffffffffffffffffffffffffffffffffff16021790555082600760006101000a81548173ffffffffffffffffffffffffffffffffffffffff021916908373ffffffffffffffffffffffffffffffffffffffff16021790555081600981905550426008819055508060008190555080600a6000600360009054906101000a900473ffffffffffffffffffffffffffffffffffffffff1673ffffffffffffffffffffffffffffffffffffffff1673ffffffffffffffffffffffffffffffffffffffff16815260200190815260200160002060000181905550505050505050620002d2565b828054600181600116156101000203166002900490600052602060002090601f016020900481019282601f106200026657805160ff191683800117855562000297565b8280016001018555821562000297579182015b828111156200029657825182559160200191906001019062000279565b5b509050620002a69190620002aa565b5090565b620002cf91905b80821115620002cb576000816000905550600101620002b1565b5090565b90565b6124ea80620002e26000396000f300606060405260043610610154576000357c0100000000000000000000000000000000000000000000000000000000900463ffffffff16806306fdde0314610159578063095ea7b3146101e757806318160ddd1461024157806323b872dd1461026a578063313ce567146102e3578063375b74c3146103125780633ab9b4c3146103675780634e71d92d146103a757806363bd1d4a146103bc57806366188463146103c657806370a082311461042057806370dea79a1461046d57806380e9071b146104965780638bc8c5cd146104ab5780638da5cb5b146104d957806395d89b411461052e578063a6f2ae3a146105bc578063a9059cbb146105c6578063abff011014610620578063bdbc952714610675578063c040e6b814610698578063d73dd623146106cf578063d8270dce14610729578063dd62ed3e14610752578063e4849b32146107be578063e6502b72146107e1575b600080fd5b341561016457600080fd5b61016c610807565b6040518080602001828103825283818151815260200191508051906020019080838360005b838110156101ac578082015181840152602081019050610191565b50505050905090810190601f1680156101d95780820380516001836020036101000a031916815260200191505b509250505060405180910390f35b34156101f257600080fd5b610227600480803573ffffffffffffffffffffffffffffffffffffffff169060200190919080359060200190919050506108a5565b604051808215151515815260200191505060405180910390f35b341561024c57600080fd5b610254610997565b6040518082815260200191505060405180910390f35b341561027557600080fd5b6102c9600480803573ffffffffffffffffffffffffffffffffffffffff1690602001909190803573ffffffffffffffffffffffffffffffffffffffff1690602001909190803590602001909190505061099d565b604051808215151515815260200191505060405180910390f35b34156102ee57600080fd5b6102f6610c89565b604051808260ff1660ff16815260200191505060405180910390f35b341561031d57600080fd5b610325610c9c565b604051808273ffffffffffffffffffffffffffffffffffffffff1673ffffffffffffffffffffffffffffffffffffffff16815260200191505060405180910390f35b341561037257600080fd5b6103a5600480803560ff169060200190919080356000191690602001909190803560001916906020019091905050610cc2565b005b34156103b257600080fd5b6103ba610ffa565b005b6103c4611135565b005b34156103d157600080fd5b610406600480803573ffffffffffffffffffffffffffffffffffffffff169060200190919080359060200190919050506111fc565b604051808215151515815260200191505060405180910390f35b341561042b57600080fd5b610457600480803573ffffffffffffffffffffffffffffffffffffffff1690602001909190505061148d565b6040518082815260200191505060405180910390f35b341561047857600080fd5b6104806114d9565b6040518082815260200191505060405180910390f35b34156104a157600080fd5b6104a96114df565b005b6104d7600480803573ffffffffffffffffffffffffffffffffffffffff16906020019091905050611641565b005b34156104e457600080fd5b6104ec6117c6565b604051808273ffffffffffffffffffffffffffffffffffffffff1673ffffffffffffffffffffffffffffffffffffffff16815260200191505060405180910390f35b341561053957600080fd5b6105416117ec565b6040518080602001828103825283818151815260200191508051906020019080838360005b83811015610581578082015181840152602081019050610566565b50505050905090810190601f1680156105ae5780820380516001836020036101000a031916815260200191505b509250505060405180910390f35b6105c461188a565b005b34156105d157600080fd5b610606600480803573ffffffffffffffffffffffffffffffffffffffff16906020019091908035906020019091905050611b7a565b604051808215151515815260200191505060405180910390f35b341561062b57600080fd5b610633611e67565b604051808273ffffffffffffffffffffffffffffffffffffffff1673ffffffffffffffffffffffffffffffffffffffff16815260200191505060405180910390f35b341561068057600080fd5b6106966004808035906020019091905050611e8d565b005b34156106a357600080fd5b6106ab611ef3565b604051808260038111156106bb57fe5b60ff16815260200191505060405180910390f35b34156106da57600080fd5b61070f600480803573ffffffffffffffffffffffffffffffffffffffff16906020019091908035906020019091905050611f06565b604051808215151515815260200191505060405180910390f35b341561073457600080fd5b61073c612102565b6040518082815260200191505060405180910390f35b341561075d57600080fd5b6107a8600480803573ffffffffffffffffffffffffffffffffffffffff1690602001909190803573ffffffffffffffffffffffffffffffffffffffff16906020019091905050612108565b6040518082815260200191505060405180910390f35b34156107c957600080fd5b6107df600480803590602001909190505061218f565b005b34156107ec57600080fd5b610805600480803560ff16906020019091905050612363565b005b60048054600181600116156101000203166002900480601f01602080910402602001604051908101604052809291908181526020018280546001816001161561010002031660029004801561089d5780601f106108725761010080835404028352916020019161089d565b820191906000526020600020905b81548152906001019060200180831161088057829003601f168201915b505050505081565b600081600260003373ffffffffffffffffffffffffffffffffffffffff1673ffffffffffffffffffffffffffffffffffffffff16815260200190815260200160002060008573ffffffffffffffffffffffffffffffffffffffff1673ffffffffffffffffffffffffffffffffffffffff168152602001908152602001600020819055508273ffffffffffffffffffffffffffffffffffffffff163373ffffffffffffffffffffffffffffffffffffffff167f8c5be1e5ebec7d5bd14f71427d1e84f3dd0314c0f7b2291e5b200ac8c7c3b925846040518082815260200191505060405180910390a36001905092915050565b60005481565b600080600073ffffffffffffffffffffffffffffffffffffffff168473ffffffffffffffffffffffffffffffffffffffff16141515156109dc57600080fd5b600260008673ffffffffffffffffffffffffffffffffffffffff1673ffffffffffffffffffffffffffffffffffffffff16815260200190815260200160002060003373ffffffffffffffffffffffffffffffffffffffff1673ffffffffffffffffffffffffffffffffffffffff168152602001908152602001600020549050610aad83600160008873ffffffffffffffffffffffffffffffffffffffff1673ffffffffffffffffffffffffffffffffffffffff168152602001908152602001600020546123ce90919063ffffffff16565b600160008773ffffffffffffffffffffffffffffffffffffffff1673ffffffffffffffffffffffffffffffffffffffff16815260200190815260200160002081905550610b4283600160008773ffffffffffffffffffffffffffffffffffffffff1673ffffffffffffffffffffffffffffffffffffffff168152602001908152602001600020546123e790919063ffffffff16565b600160008673ffffffffffffffffffffffffffffffffffffffff1673ffffffffffffffffffffffffffffffffffffffff16815260200190815260200160002081905550610b9883826123ce90919063ffffffff16565b600260008773ffffffffffffffffffffffffffffffffffffffff1673ffffffffffffffffffffffffffffffffffffffff16815260200190815260200160002060003373ffffffffffffffffffffffffffffffffffffffff1673ffffffffffffffffffffffffffffffffffffffff168152602001908152602001600020819055508373ffffffffffffffffffffffffffffffffffffffff168573ffffffffffffffffffffffffffffffffffffffff167fddf252ad1be2c89b69c2b068fc378daa952ba7f163c4a11628f55a4df523b3ef856040518082815260200191505060405180910390a360019150509392505050565b600660009054906101000a900460ff1681565b600760009054906101000a900473ffffffffffffffffffffffffffffffffffffffff1681565b6000610ccc6124aa565b60008060006003811115610cdc57fe5b600d60009054906101000a900460ff166003811115610cf757fe5b148015610d1a5750610d166009546008546123e790919063ffffffff16565b4210155b15610d2a57610d296002612363565b5b6001806003811115610d3857fe5b600d60009054906101000a900460ff166003811115610d5357fe5b141515610d5f57600080fd5b60056000546001026040518083805460018160011615610100020316600290048015610dc25780601f10610da0576101008083540402835291820191610dc2565b820191906000526020600020905b815481529060010190602001808311610dae575b5050826000191660001916815260200192505050604051809103902094506040805190810160405280601c81526020017f19457468657265756d205369676e6564204d6573736167653a0a333200000000815250935083856040518083805190602001908083835b602083101515610e4f5780518252602082019150602081019050602083039250610e2a565b6001836020036101000a03801982511681845116808217855250505050505090500182600019166000191681526020019250505060405180910390209250600183898989604051600081526020016040526000604051602001526040518085600019166000191681526020018460ff1660ff16815260200183600019166000191681526020018260001916600019168152602001945050505050602060405160208103908084039060008661646e5a03f11515610f0b57600080fd5b5050602060405103519150600760009054906101000a900473ffffffffffffffffffffffffffffffffffffffff1673ffffffffffffffffffffffffffffffffffffffff168273ffffffffffffffffffffffffffffffffffffffff161415610ff057600660019054906101000a900473ffffffffffffffffffffffffffffffffffffffff1673ffffffffffffffffffffffffffffffffffffffff166108fc3073ffffffffffffffffffffffffffffffffffffffff16319081150290604051600060405180830381858888f193505050501515610fe557600080fd5b610fef6003612363565b5b5050505050505050565b6000600380600381111561100a57fe5b600d60009054906101000a900460ff16600381111561102557fe5b14151561103157600080fd5b611097600a60003373ffffffffffffffffffffffffffffffffffffffff1673ffffffffffffffffffffffffffffffffffffffff16815260200190815260200160002060408051908101604052908160008201548152602001600182015481525050612405565b91506000821115156110a857600080fd5b600c54600a60003373ffffffffffffffffffffffffffffffffffffffff1673ffffffffffffffffffffffffffffffffffffffff168152602001908152602001600020600101819055503373ffffffffffffffffffffffffffffffffffffffff166108fc839081150290604051600060405180830381858888f19350505050151561113157600080fd5b5050565b600380600381111561114357fe5b600d60009054906101000a900460ff16600381111561115e57fe5b14151561116a57600080fd5b60003411151561117957600080fd5b6111bc6111ab60005461119d678ac7230489e800003461245c90919063ffffffff16565b61248f90919063ffffffff16565b600c546123e790919063ffffffff16565b600c819055507f22427047e1a674a9aff59700a2c8d00ea96e017ddf9236690bdedf1f21f28d9d346040518082815260200191505060405180910390a150565b600080600260003373ffffffffffffffffffffffffffffffffffffffff1673ffffffffffffffffffffffffffffffffffffffff16815260200190815260200160002060008573ffffffffffffffffffffffffffffffffffffffff1673ffffffffffffffffffffffffffffffffffffffff1681526020019081526020016000205490508083111561130d576000600260003373ffffffffffffffffffffffffffffffffffffffff1673ffffffffffffffffffffffffffffffffffffffff16815260200190815260200160002060008673ffffffffffffffffffffffffffffffffffffffff1673ffffffffffffffffffffffffffffffffffffffff168152602001908152602001600020819055506113a1565b61132083826123ce90919063ffffffff16565b600260003373ffffffffffffffffffffffffffffffffffffffff1673ffffffffffffffffffffffffffffffffffffffff16815260200190815260200160002060008673ffffffffffffffffffffffffffffffffffffffff1673ffffffffffffffffffffffffffffffffffffffff168152602001908152602001600020819055505b8373ffffffffffffffffffffffffffffffffffffffff163373ffffffffffffffffffffffffffffffffffffffff167f8c5be1e5ebec7d5bd14f71427d1e84f3dd0314c0f7b2291e5b200ac8c7c3b925600260003373ffffffffffffffffffffffffffffffffffffffff1673ffffffffffffffffffffffffffffffffffffffff16815260200190815260200160002060008873ffffffffffffffffffffffffffffffffffffffff1673ffffffffffffffffffffffffffffffffffffffff168152602001908152602001600020546040518082815260200191505060405180910390a3600191505092915050565b6000600a60008373ffffffffffffffffffffffffffffffffffffffff1673ffffffffffffffffffffffffffffffffffffffff168152602001908152602001600020600001549050919050565b60095481565b60008060038111156114ed57fe5b600d60009054906101000a900460ff16600381111561150857fe5b14801561152b57506115276009546008546123e790919063ffffffff16565b4210155b1561153b5761153a6002612363565b5b600280600381111561154957fe5b600d60009054906101000a900460ff16600381111561156457fe5b14151561157057600080fd5b600a60003373ffffffffffffffffffffffffffffffffffffffff1673ffffffffffffffffffffffffffffffffffffffff1681526020019081526020016000206000015491506000600a60003373ffffffffffffffffffffffffffffffffffffffff1673ffffffffffffffffffffffffffffffffffffffff168152602001908152602001600020600001819055503373ffffffffffffffffffffffffffffffffffffffff166108fc839081150290604051600060405180830381858888f19350505050151561163d57600080fd5b5050565b600380600381111561164f57fe5b600d60009054906101000a900460ff16600381111561166a57fe5b14151561167657600080fd5b600660019054906101000a900473ffffffffffffffffffffffffffffffffffffffff1673ffffffffffffffffffffffffffffffffffffffff163373ffffffffffffffffffffffffffffffffffffffff161415156116d257600080fd5b61172434600b60008573ffffffffffffffffffffffffffffffffffffffff1673ffffffffffffffffffffffffffffffffffffffff168152602001908152602001600020546123ce90919063ffffffff16565b600b60008473ffffffffffffffffffffffffffffffffffffffff1673ffffffffffffffffffffffffffffffffffffffff1681526020019081526020016000208190555061177c346000546123ce90919063ffffffff16565b6000819055508173ffffffffffffffffffffffffffffffffffffffff166108fc349081150290604051600060405180830381858888f1935050505015156117c257600080fd5b5050565b600360009054906101000a900473ffffffffffffffffffffffffffffffffffffffff1681565b60058054600181600116156101000203166002900480601f0160208091040260200160405190810160405280929190818152602001828054600181600116156101000203166002900480156118825780601f1061185757610100808354040283529160200191611882565b820191906000526020600020905b81548152906001019060200180831161186557829003601f168201915b505050505081565b6000600381111561189757fe5b600d60009054906101000a900460ff1660038111156118b257fe5b1480156118d557506118d16009546008546123e790919063ffffffff16565b4210155b156118e5576118e46002612363565b5b60008060038111156118f357fe5b600d60009054906101000a900460ff16600381111561190e57fe5b14151561191a57600080fd5b61199134600a6000600360009054906101000a900473ffffffffffffffffffffffffffffffffffffffff1673ffffffffffffffffffffffffffffffffffffffff1673ffffffffffffffffffffffffffffffffffffffff168152602001908152602001600020600001546123ce90919063ffffffff16565b600a6000600360009054906101000a900473ffffffffffffffffffffffffffffffffffffffff1673ffffffffffffffffffffffffffffffffffffffff1673ffffffffffffffffffffffffffffffffffffffff16815260200190815260200160002060000181905550611a4e34600a60003373ffffffffffffffffffffffffffffffffffffffff1673ffffffffffffffffffffffffffffffffffffffff168152602001908152602001600020600001546123e790919063ffffffff16565b600a60003373ffffffffffffffffffffffffffffffffffffffff1673ffffffffffffffffffffffffffffffffffffffff168152602001908152602001600020600001819055507fe3d4187f6ca4248660cc0ac8b8056515bac4a8132be2eca31d6d0cc170722a7e3334604051808373ffffffffffffffffffffffffffffffffffffffff1673ffffffffffffffffffffffffffffffffffffffff1681526020018281526020019250505060405180910390a16000600a6000600360009054906101000a900473ffffffffffffffffffffffffffffffffffffffff1673ffffffffffffffffffffffffffffffffffffffff1673ffffffffffffffffffffffffffffffffffffffff168152602001908152602001600020600001541415611b7757611b766001612363565b5b50565b600080611be3600a60003373ffffffffffffffffffffffffffffffffffffffff1673ffffffffffffffffffffffffffffffffffffffff16815260200190815260200160002060408051908101604052908160008201548152602001600182015481525050612405565b90506000811115611c2f573373ffffffffffffffffffffffffffffffffffffffff166108fc829081150290604051600060405180830381858888f193505050501515611c2e57600080fd5b5b611c8483600a60003373ffffffffffffffffffffffffffffffffffffffff1673ffffffffffffffffffffffffffffffffffffffff168152602001908152602001600020600001546123ce90919063ffffffff16565b600a60003373ffffffffffffffffffffffffffffffffffffffff1673ffffffffffffffffffffffffffffffffffffffff16815260200190815260200160002060000181905550611d1f83600a60008773ffffffffffffffffffffffffffffffffffffffff1673ffffffffffffffffffffffffffffffffffffffff168152602001908152602001600020600001546123e790919063ffffffff16565b600a60008673ffffffffffffffffffffffffffffffffffffffff1673ffffffffffffffffffffffffffffffffffffffff16815260200190815260200160002060000181905550600c54600a60003373ffffffffffffffffffffffffffffffffffffffff1673ffffffffffffffffffffffffffffffffffffffff16815260200190815260200160002060010181905550600c54600a60008673ffffffffffffffffffffffffffffffffffffffff1673ffffffffffffffffffffffffffffffffffffffff168152602001908152602001600020600101819055508373ffffffffffffffffffffffffffffffffffffffff163373ffffffffffffffffffffffffffffffffffffffff167fddf252ad1be2c89b69c2b068fc378daa952ba7f163c4a11628f55a4df523b3ef856040518082815260200191505060405180910390a3600191505092915050565b600660019054906101000a900473ffffffffffffffffffffffffffffffffffffffff1681565b600360009054906101000a900473ffffffffffffffffffffffffffffffffffffffff1673ffffffffffffffffffffffffffffffffffffffff163373ffffffffffffffffffffffffffffffffffffffff16141515611ee957600080fd5b8060008190555050565b600d60009054906101000a900460ff1681565b6000611f9782600260003373ffffffffffffffffffffffffffffffffffffffff1673ffffffffffffffffffffffffffffffffffffffff16815260200190815260200160002060008673ffffffffffffffffffffffffffffffffffffffff1673ffffffffffffffffffffffffffffffffffffffff168152602001908152602001600020546123e790919063ffffffff16565b600260003373ffffffffffffffffffffffffffffffffffffffff1673ffffffffffffffffffffffffffffffffffffffff16815260200190815260200160002060008573ffffffffffffffffffffffffffffffffffffffff1673ffffffffffffffffffffffffffffffffffffffff168152602001908152602001600020819055508273ffffffffffffffffffffffffffffffffffffffff163373ffffffffffffffffffffffffffffffffffffffff167f8c5be1e5ebec7d5bd14f71427d1e84f3dd0314c0f7b2291e5b200ac8c7c3b925600260003373ffffffffffffffffffffffffffffffffffffffff1673ffffffffffffffffffffffffffffffffffffffff16815260200190815260200160002060008773ffffffffffffffffffffffffffffffffffffffff1673ffffffffffffffffffffffffffffffffffffffff168152602001908152602001600020546040518082815260200191505060405180910390a36001905092915050565b60085481565b6000600260008473ffffffffffffffffffffffffffffffffffffffff1673ffffffffffffffffffffffffffffffffffffffff16815260200190815260200160002060008373ffffffffffffffffffffffffffffffffffffffff1673ffffffffffffffffffffffffffffffffffffffff16815260200190815260200160002054905092915050565b600380600381111561219d57fe5b600d60009054906101000a900460ff1660038111156121b857fe5b1415156121c457600080fd5b61221982600a60003373ffffffffffffffffffffffffffffffffffffffff1673ffffffffffffffffffffffffffffffffffffffff168152602001908152602001600020600001546123ce90919063ffffffff16565b600a60003373ffffffffffffffffffffffffffffffffffffffff1673ffffffffffffffffffffffffffffffffffffffff168152602001908152602001600020600001819055506122b182600b60003373ffffffffffffffffffffffffffffffffffffffff1673ffffffffffffffffffffffffffffffffffffffff168152602001908152602001600020546123e790919063ffffffff16565b600b60003373ffffffffffffffffffffffffffffffffffffffff1673ffffffffffffffffffffffffffffffffffffffff168152602001908152602001600020819055507f5e5e995ce3133561afceaa51a9a154d5db228cd7525d34df5185582c18d3df093383604051808373ffffffffffffffffffffffffffffffffffffffff1673ffffffffffffffffffffffffffffffffffffffff1681526020018281526020019250505060405180910390a15050565b80600d60006101000a81548160ff0219169083600381111561238157fe5b02179055507fabbbf5866c6558973ab811ba4ed40d01d87629d9a064c4fb669762c4ead9fb4881604051808260038111156123b857fe5b60ff16815260200191505060405180910390a150565b60008282111515156123dc57fe5b818303905092915050565b60008082840190508381101515156123fb57fe5b8091505092915050565b6000806124218360200151600c546123ce90919063ffffffff16565b9050612454678ac7230489e8000061244683866000015161245c90919063ffffffff16565b61248f90919063ffffffff16565b915050919050565b6000808284029050600084148061247d575082848281151561247a57fe5b04145b151561248557fe5b8091505092915050565b600080828481151561249d57fe5b0490508091505092915050565b6020604051908101604052806000815250905600a165627a7a72305820d627c554b1050adbdcb2a4968f8dfa5719e34fb9713b1a60240566be02fbb8bd0029",
  "source": "pragma solidity ^0.4.8;\n\nimport \"zeppelin-solidity/contracts/token/StandardToken.sol\";\n\n\n// Proof-of-Asset contract representing a token backed by a foreign asset.\ncontract POAToken is StandardToken {\n\n    // Event emitted when a state change occurs.\n    event Stage(Stages stage);\n\n    // Event emitted when tokens are bought\n    event Buy(address buyer, uint256 amount);\n\n    // Event emitted when tokens are sold\n    event Sell(address seller, uint256 amount);\n\n    // Event emitted when dividends are paid out\n    event Payout(uint256 amount);\n\n    // The owner of this contract\n    address public owner;\n\n    // The name of this PoA Token\n    string public name;\n\n    // The symbol of this PoA Token\n    string public symbol;\n\n    // amount of decimals used for this Token\n    // this would be better as a constant, but linter won't let me\n    uint8 public decimals = 18;\n\n    \n    // The broker managing this contract\n    address public broker;\n\n    // The custodian holding the assets for this contract\n    address public custodian;\n\n    // The time when the contract was created\n    uint public creationTime;\n\n    // The time available to fund the contract\n    uint public timeout;\n\n    // An account carrying a +balance+ and +claimedPayout+ value.\n    struct Account {\n        uint256 balance;\n        uint256 claimedPayout;\n    }\n\n    // Mapping of Account per address\n    mapping(address => Account) accounts;\n\n    mapping(address => uint256) unliquidated;\n\n    uint256 totalPayout = 0;\n\n    enum Stages {\n        Funding,\n        Pending,\n        Failed,\n        Active\n    }\n\n    Stages public stage = Stages.Funding;\n\n    // Ensure current stage is +_stage+\n    modifier atStage(Stages _stage) {\n        require(stage == _stage);\n        _;\n    }\n\n    modifier onlyBroker() {\n        require(msg.sender == broker);\n        _;\n    }\n\n    modifier onlyOwner() {\n        require(msg.sender == owner);\n        _;\n    }\n\n    // Enter given stage +_stage+\n    function enterStage(Stages _stage) {\n        stage = _stage;\n        Stage(_stage);\n    }\n\n    // Ensure funding timeout hasn't expired\n    modifier checkTimeout() {\n        if (stage == Stages.Funding &&\n            now >= creationTime.add(timeout))\n            enterStage(Stages.Failed);\n        _;\n    }\n\n    // Create a new POAToken contract.\n    function POAToken(\n        string _name,\n        string _symbol,\n        address _broker,\n        address _custodian,\n        uint _timeout,\n        uint256 _supply\n    ) {\n        owner = msg.sender;\n        name = _name;\n        symbol = _symbol;\n        broker = _broker;\n        custodian = _custodian;\n        timeout = _timeout;\n        creationTime = now;\n        totalSupply = _supply;\n        accounts[owner].balance = _supply;\n    }\n\n    /* Buy PoA tokens from the contract.\n     * Called by any investor during the +Funding+ stage.\n     */\n    function buy() payable\n        checkTimeout atStage(Stages.Funding)\n    {\n        /* SafeMath will do these checks for us\n        /* require(accounts[owner].balance >= msg.value); */\n        /* require(accounts[msg.sender].balance + msg.value > accounts[msg.sender].balance); */\n        accounts[owner].balance = accounts[owner].balance.sub(msg.value);\n        accounts[msg.sender].balance = accounts[msg.sender].balance.add(msg.value);\n        Buy(msg.sender, msg.value);\n\n        if (accounts[owner].balance == 0)\n            enterStage(Stages.Pending);\n    }\n\n    /* Activate the PoA contract, providing a valid proof-of-assets.\n     * Called by the broker or custodian after assets have been received into the DTF account.\n     * This verifies that the provided signature matches the expected symbol/amount and\n     * was made with the custodians private key.\n     */\n    function activate(uint8 _v, bytes32 _r, bytes32 _s)\n        checkTimeout atStage(Stages.Pending)\n    {\n        bytes32 hash = sha3(symbol, bytes32(totalSupply));\n        bytes memory prefix = \"\\x19Ethereum Signed Message:\\n32\";\n        bytes32 prefixedHash = sha3(prefix, hash);\n\n        address sigaddr = ecrecover(\n            prefixedHash,\n            _v,\n            _r,\n            _s\n        );\n\n        if (sigaddr == custodian) {\n            broker.transfer(this.balance);\n            enterStage(Stages.Active);\n        }\n    }\n\n    /* Reclaim funds after failed funding run.\n     * Called by any investor during the `Failed` stage.\n     */\n    function reclaim()\n        checkTimeout atStage(Stages.Failed)\n    {\n        uint256 balance = accounts[msg.sender].balance;\n        accounts[msg.sender].balance = 0;\n        msg.sender.transfer(balance);\n    }\n\n    /* Sell PoA tokens back to the contract.\n     * Called by any investor during the `Active` stage.\n     * This will subtract the given +amount+ from the users\n     * token balance and saves it as unliquidated balance.\n     */\n    function sell(uint256 _amount)\n        atStage(Stages.Active)\n    {\n        /* SafeMath will do this check for us */\n        /* require(accounts[msg.sender].balance >= amount); */\n        accounts[msg.sender].balance = accounts[msg.sender].balance.sub(_amount);\n        unliquidated[msg.sender] = unliquidated[msg.sender].add(_amount);\n        Sell(msg.sender, _amount);\n    }\n\n    /* Provide funds from liquidated assets.\n     * Called by the broker after liquidating assets.\n     * This checks if the user has unliquidated balances\n     * and transfers the value to the user.\n     */\n    function liquidated(address _account) payable\n        atStage(Stages.Active)\n        onlyBroker\n    {\n         /* SafeMath will do this check for us */\n         /* require(unliquidated[account] >= msg.value); */\n        unliquidated[_account] = unliquidated[_account].sub(msg.value);\n        totalSupply = totalSupply.sub(msg.value);\n        (_account.transfer(msg.value));  // (making solium happy)\n    }\n\n    /* Provide funds from a dividend payout.\n     * Called by the broker after the asset yields dividends.\n     * This will simply add the received value to the stored `payout`.\n     */\n    function payout() payable\n        atStage(Stages.Active)\n    {\n        require(msg.value > 0);\n        totalPayout = totalPayout.add(msg.value.mul(10e18).div(totalSupply));\n        Payout(msg.value);\n    }\n\n    function currentPayout(Account _account) internal returns (uint256) {\n        uint256 totalUnclaimed = totalPayout.sub(_account.claimedPayout);\n        return _account.balance.mul(totalUnclaimed).div(10e18);\n    }\n\n    /* Claim dividend payout.\n     * Called by any investor after dividends have been received.\n     * This will calculate the payout, subtract any already claimed payouts,\n     * update the claimed payouts for the given account, and send the payout.\n     */\n    function claim()\n        atStage(Stages.Active)\n    {\n        uint256 payoutAmount = currentPayout(accounts[msg.sender]);\n        require(payoutAmount > 0);\n        accounts[msg.sender].claimedPayout = totalPayout;\n        msg.sender.transfer(payoutAmount);\n    }\n\n    // Transfer +_value+ from sender to account +_to+.\n    function transfer(address _to, uint256 _value) returns (bool) {\n        // send any remaining unclaimed payouts to msg.sender\n        uint256 payoutAmount = currentPayout(accounts[msg.sender]);\n        if (payoutAmount > 0)\n            msg.sender.transfer(payoutAmount);\n\n        // shift balances\n        accounts[msg.sender].balance = accounts[msg.sender].balance.sub(_value);\n        accounts[_to].balance = accounts[_to].balance.add(_value);\n\n        // set claimed payouts to max for both accounts\n        accounts[msg.sender].claimedPayout = totalPayout;\n        accounts[_to].claimedPayout = totalPayout;\n\n        Transfer(msg.sender, _to, _value);\n        return true;\n    }\n\n    // Get balance of given address +_account+.\n    function balanceOf(address _account) constant returns (uint256 balance) {\n        return accounts[_account].balance;\n    }\n\n    // TODO: needed to test dividend payouts until we implement real changing supply\n    function debugSetSupply(uint256 _supply) onlyOwner {\n        totalSupply = _supply;\n    }\n\n}\n",
  "sourcePath": "/Users/tovarishfin/dev/research/fountain/contracts/POAToken.sol",
  "compiler": {
    "name": "solc",
    "version": "0.4.18+commit.9cf6e910.Emscripten.clang"
  },
  "schemaVersion": "1.0.1",
  "updatedAt": "2017-11-09T10:42:10.581Z"
}